:100000000C945D000C9485000C9485000C94850084
:100010000C9485000C9485000C9485000C9485004C
:100020000C9485000C9485000C9485000C9485003C
:100030000C9485000C9485000C9485000C9485002C
:100040000C94A5050C9485000C9415060C94EF05F2
:100050000C9485000C9485000C9485000C9485000C
:100060000C9486040C9485000000000024002700F6
:100070002A0000000000250028002B0004040404CE
:100080000404040402020202020203030303030342
:10009000010204081020408001020408102001021F
:1000A00004081020000000080002010000030407FB
:1000B0000000000000000000470611241FBECFEF23
:1000C000D8E0DEBFCDBF11E0A0E0B1E0E4E6F3E1AF
:1000D00002C005900D92A237B107D9F722E0A2E73E
:1000E000B1E001C01D92A63EB207E1F710E0CDE5F8
:1000F000D0E004C02197FE010E94AA09CC35D107A7
:10010000C9F70E948F060C94B0090C94000085ED8D
:100110008093BC008091BC0084FDFCCF10920B0248
:1001200008952091E501260F3327331F2132310531
:10013000ECF420910B02FC0190E080E0243069F0A7
:1001400082E00895A091E5012191AC014D535E4FED
:10015000A40FB52FB11D2C930196861798F38091AB
:10016000E501680F6093E50180E0089581E008955E
:10017000089508950895E091C0018091BF01E817A6
:1001800030F4F0E0E156FE4F808190E008958FEF6B
:100190009FEF08959091C0018091BF012FEF3FEF35
:1001A000981748F4E92FF0E0E156FE4F208130E047
:1001B0009F5F9093C001C90108958091BF01909104
:1001C000C001891B990B0895CF92DF92EF92FF92A5
:1001D0000F931F93CF93DF937C01CB018A01209172
:1001E0009E01222389F0EB016B01C40ED51ECC15B4
:1001F000DD0569F06991D701ED91FC910190F081E5
:10020000E02DC7010995F3CF642F0E949100C8012A
:10021000DF91CF911F910F91FF90EF90DF90CF90E2
:100220000895CF93DF931F92CDB7DEB769832091F6
:100230009E012223F9F02091C101203258F021E0E3
:1002400030E0FC013383228390E080E00F90DF9167
:10025000CF9108958091C201E82FF0E0E258FE4F5F
:10026000998190838F5F8093C2018093C10181E067
:1002700090E0ECCF61E0CE0101960E949100F7CFB3
:1002800090E0FC01EC55FF4F2491FC01E057FF4F3B
:100290003491FC01E458FF4FE491EE23C9F022238E
:1002A00039F0233001F1A8F4213019F1223029F17D
:1002B000F0E0EE0FFF1FEE58FF4FA591B4918FB7FE
:1002C000F894EC91611126C030953E233C938FBF8A
:1002D00008952730A9F02830C9F0243049F78091DB
:1002E00080008F7D03C0809180008F778093800095
:1002F000DFCF84B58F7784BDDBCF84B58F7DFBCF17
:100300008091B0008F778093B000D2CF8091B00001
:100310008F7DF9CF3E2BDACFCF93DF9390E0FC01B6
:10032000E057FF4F249184589F4FFC01849188230C
:10033000D1F090E0880F991FFC01E859FF4FA5917B
:10034000B491FC01EE58FF4FC591D49161110EC0DC
:100350009FB7F8948C91E22FE0958E238C9328819F
:10036000E223E8839FBFDF91CF9108958FB7F89480
:10037000EC91E22BEC938FBFF6CF3FB7F8948091CE
:100380007A0190917B01A0917C01B0917D0126B50D
:10039000A89B05C02F3F19F00196A11DB11D3FBFBD
:1003A000BA2FA92F982F8827BC01CD01620F711D8C
:1003B000811D911D42E0660F771F881F991F4A9586
:1003C000D1F708958F929F92AF92BF92CF92DF9212
:1003D000EF92FF924B015C010E94BD016B017C0119
:1003E0000E94BD016C197D098E099F09683E73400A
:1003F00081059105A8F321E0821A9108A108B108AE
:1004000088EEC80E83E0D81EE11CF11C8114910413
:10041000A104B10429F7FF90EF90DF90CF90BF9037
:10042000AF909F908F900895AF92BF92CF92DF923E
:10043000EF92FF920F931F93CF93DF936C017B0199
:100440008B01040F151FEB015E01AE18BF08C0172A
:10045000D10759F06991D601ED91FC910190F0819D
:10046000E02DC6010995892B79F7C501DF91CF9160
:100470001F910F91FF90EF90DF90CF90BF90AF90C2
:100480000895FC01538D448D252F30E0842F90E09A
:10049000821B930B541710F0CF960895019708957F
:1004A000FC01918D828D981761F0A28DAE0FBF2F48
:1004B000B11D5D968C91928D9F5F9F73928F90E09E
:1004C00008958FEF9FEF0895FC01918D828D98170D
:1004D00031F0828DE80FF11D858D90E008958FEF4A
:1004E0009FEF0895FC01918D228D892F90E0805C13
:1004F0009F4F821B91098F73992708958DE392E096
:100500000E94720221E0892B09F420E0822F0895D5
:1005100080E090E0892B29F00E947E0281110C94EA
:1005200000000895FC01A48DA80FB92FB11DA35A96
:10053000BF4F2C91848D90E001968F739927848F03
:10054000A689B7892C93A089B1898C918370806426
:100550008C93938D848D981306C00288F389E02DC7
:1005600080818F7D80830895EF92FF920F931F9378
:10057000CF93DF93EC0181E0888F9B8D8C8D981356
:100580001AC0E889F989808185FF15C09FB7F89462
:10059000EE89FF896083E889F989808183708064AE
:1005A00080839FBF81E090E0DF91CF911F910F91F9
:1005B000FF90EF900895F62E0B8D10E00F5F1F4F08
:1005C0000F731127E02E8C8D8E110CC00FB607FC17
:1005D000FACFE889F989808185FFF5CFCE010E94A5
:1005E0009202F1CFEB8DEC0FFD2FF11DE35AFF4F7F
:1005F000F0829FB7F8940B8FEA89FB898081806233
:10060000CFCFCF93DF93EC01888D8823B9F0AA89EF
:10061000BB89E889F9898C9185FD03C0808186FDBD
:100620000DC00FB607FCF7CF8C9185FFF2CF80810C
:1006300085FFEDCFCE010E949202E9CFDF91CF91ED
:100640000895CF93FC01C48121E020939E01C093C3
:1006500072011092C2011092C1018385682B81E35F
:1006600092E00E9411019091C101913208F03FC0C7
:1006700080910B028111FCCF82E080930B0281E01C
:1006800080930D028FEF80930A0210922F029093B5
:100690002E02AEE7B1E0EEE0F2E080E098132FC06A
:1006A0001092300280913002CC0FC82BC0933002E0
:1006B00080910C02813039F510920C028091300249
:1006C0008093BB008091BC0083FDF8CF85EC8093C4
:1006D000BC0080910B028230E1F380910A028F3FCF
:1006E00031F080910A02803211F080910A0210925A
:1006F000C2011092C10110929E01CF9108952D91D7
:1007000021938F5FCBCF85EEE2CF089590E080E01C
:100710000895FB0101900020E9F73197AF01461BD6
:10072000570BDC01ED91FC910280F381E02D0994DF
:100730008F929F92AF92BF92EF92FF920F931F936F
:10074000CF93DF93CDB7DEB7A1970FB6F894DEBF96
:100750000FBECDBF7C01FA01CB0119A2223008F4F3
:100760002AE08E010F5D1F4F822E912CB12CA12CFF
:10077000BF01A50194010E948809F901CA016A30EC
:100780000CF5605DD8016E938D01232B242B252B56
:1007900079F790E080E0109721F0BD01C7010E9439
:1007A0008903A1960FB6F894DEBF0FBECDBFDF91CF
:1007B000CF911F910F91FF90EF90BF90AF909F90BE
:1007C0008F900895695CDECF0F931F93CF938C01B8
:1007D000C62F0E9421036C2F6460C8010E94210370
:1007E0006C2F6B7FC8010E94210383EC90E001977E
:1007F000F1F7CF911F910F9108950F931F93CF930E
:10080000DF938C01D62FC42F607F642B0E94E403FA
:1008100080E1D89FB00111246C2BC801DF91CF91EA
:100820001F910F910C94E403CF93DF93823028F053
:100830009091DF0298609093DF028093E20262E37E
:1008400070E080E090E00E94E2016091E5028AEDB4
:1008500092E00E94210368EE73E080E090E00E9445
:10086000E20160E38AED92E00E94E403CBE4D6E487
:10087000CE010197F1F760E38AED92E00E94E40374
:100880002197F1F760E38AED92E00E94E40383E5AB
:1008900092E00197F1F760E28AED92E00E94E403B2
:1008A0006091DF02606240E08AED92E00E94FD0309
:1008B00084E08093E00240E06CE08AED92E00E94E8
:1008C000FD0340E061E08AED92E00E94FD03CBE38E
:1008D000DFE1CE010197F1F782E08093E10240E091
:1008E00066E08AED92E00E94FD0340E062E08AED5E
:1008F00092E00E94FD032197F1F7DF91CF910895D7
:1009000041E00E94FD0381E090E008951F920F9264
:100910000FB60F9211242F933F934F935F936F93D2
:100920007F938F939F93AF93BF93EF93FF938091A8
:10093000B900887F803609F44AC0F0F5883209F49E
:10094000A7C018F5803109F49BC0B8F4882309F4D6
:10095000F9C0883009F494C0FF91EF91BF91AF9135
:100960009F918F917F916F915F914F913F912F91C7
:100970000F900FBE0F901F901895883109F488C012
:10098000803251F780930A0214C0803409F49DC06C
:1009900040F48033B9F38833F9F680930A0285EC8A
:1009A000B0C0803509F485C0883509F496C0883414
:1009B00099F60E948700D0CF883909F48CC038F5A9
:1009C000883729F050F4883611F0803729F683E013
:1009D00080930B021092090257C0883809F47BC03B
:1009E000803919F0803809F0B7CF80910902803240
:1009F00008F071C0E091090281E08E0F8093090236
:100A00008091BB00F0E0E751FE4F80833DC0803B0A
:100A100039F0E0F4803A09F479C0883A09F09CCFC3
:100A200084E080930B021092E6011092E501E091C0
:100A3000E301F091E40109958091E50181110FC076
:100A400081E08093E5011092C30109C0803C09F464
:100A5000A6CF883C09F4A3CF883B09F07DCFE09175
:100A6000E60181E08E0F8093E601F0E0ED53FE4F4A
:100A700080818093BB009091E6018091E50129C0BF
:100A8000809130028093BB0085EC8093BC0064CFE2
:100A900090912F0280912E02981758F5E0912F0225
:100AA00081E08E0F80932F02F0E0E25FFD4F8081A6
:100AB000E9CFE0912F0281E08E0F80932F02809189
:100AC000BB00F0E0E25FFD4F808390912F028091A8
:100AD0002E029817C8F285E8D8CFE0912F0281E066
:100AE0008E0F80932F028091BB00F0E0E25FFD4FFC
:100AF000808380910D0281115CCF81E080930C0294
:100B000084EA8093BC0010920B0226CF85EC809380
:100B1000BC0010920B0280910902803230F4E09107
:100B20000902F0E0E751FE4F10826091090270E087
:100B3000E091E701F091E80189EE91E009951092CA
:100B400009020ACF10920A0234CF1F920F920FB6F9
:100B50000F9211242F933F938F939F93AF93BF9343
:100B60008091760190917701A0917801B0917901FF
:100B70003091750123E0230F2D3758F50196A11D03
:100B8000B11D209375018093760190937701A09316
:100B90007801B093790180917A0190917B01A091C5
:100BA0007C01B0917D010196A11DB11D80937A0158
:100BB00090937B01A0937C01B0937D01BF91AF9195
:100BC0009F918F913F912F910F900FBE0F901F908B
:100BD000189526E8230F0296A11DB11DD2CF1F92B2
:100BE0000F920FB60F9211242F933F934F935F9361
:100BF0006F937F938F939F93AF93BF93EF93FF93E5
:100C00008DE392E00E949202FF91EF91BF91AF912C
:100C10009F918F917F916F915F914F913F912F9114
:100C20000F900FBE0F901F9018951F920F920FB646
:100C30000F9211242F938F939F93EF93FF93E09143
:100C40004D02F0914E028081E0915302F0915402E6
:100C500082FD1BC09081809156028F5F8F7320911F
:100C60005702821741F0E0915602F0E0E35CFD4F3D
:100C7000958F80935602FF91EF919F918F912F91C5
:100C80000F900FBE0F901F9018958081F4CFE1E375
:100C9000F2E01382128288EE93E0A0E0B0E0848359
:100CA0009583A683B7832CE031E031832083EDE385
:100CB000F2E01382128284839583A683B7838EE148
:100CC00091E09183808385EC90E09587848784EC24
:100CD00090E09787868780EC90E0918B808B81EC09
:100CE00090E0938B828B82EC90E0958B848B86ECEA
:100CF00090E0978B868B118E128E138E148EEAEDF8
:100D0000F2E01382128280E391E0918380838FE38B
:100D1000848380E1818782E0828713860895CF9360
:100D2000DF93CDB7DEB728970FB6F894DEBF0FBEBE
:100D3000CDBF789484B5826084BD84B5816084BD64
:100D400085B5826085BD85B5816085BD80916E0069
:100D5000816080936E00109281008091810082609A
:100D600080938100809181008160809381008091D7
:100D700080008160809380008091B10084608093C6
:100D8000B1008091B00081608093B00080917A00C2
:100D9000846080937A0080917A00826080937A00E8
:100DA00080917A00816080937A0080917A008068D7
:100DB00080937A001092C10060E08EE00E948C0166
:100DC00061E089E00E948C01E0914D02F0914E02B9
:100DD00082E08083E0914902F0914A021082E09122
:100DE0004B02F0914C028FEC808310925502E091FF
:100DF0005102F091520286E08083E0914F02F0911F
:100E00005002808180618083E0914F02F091500216
:100E1000808188608083E0914F02F0915002808150
:100E200080688083E0914F02F091500280818F7D35
:100E3000808382E00E94140468E371E08AED92E00E
:100E40000E9489031092C0011092BF011092C2014A
:100E50001092C10110920B0281E080930D0210925A
:100E60000C0261E082E10E94400161E083E10E94A6
:100E700040018091B9008E7F8093B9008091B900C4
:100E80008D7F8093B90088E48093B80085E48093D7
:100E9000BC0088EB90E09093E4018093E30189EB40
:100EA00090E09093E8018093E7011092DF02809137
:100EB000E4020E94140488E08093E50260E08AED79
:100EC00092E00E94210390E4B92E2DEAE22E20E068
:100ED000F22E00E010E0B0927C0080917A008064F5
:100EE00080937A0080917A0086FDFCCF8091780013
:100EF00060917900762F682F072E000C880B990BD4
:100F00000E948F0820ED3FE34FE75EE30E94F30865
:100F10000E9457082B016B01709374016093730159
:100F200061E089E00E948C014114510409F077C00E
:100F300060E089E00E94400163E571E08DE392E0AA
:100F40000E9489034090730150907401052C000C9D
:100F5000660877082AE0B301A20177FE0DC06DE2B2
:100F60008DE392E00E94B40244275527BA01441948
:100F70005509660977092AE08DE392E00E949803FB
:100F80006FE671E08DE392E00E94890388E0E0E083
:100F9000F1E0DE01119601900D928A95E1F78091C2
:100FA000E202EFEF8111E1E0F0E0EE0FFF1F81E0E0
:100FB00090E08C0F9D1FE80FF91F6081606840E092
:100FC0008AED92E00E94FD034090730150907401FD
:100FD000052C000C660877082AE0B301A20177FE11
:100FE0000EC041E06DE28AED92E00E94FD034427CD
:100FF0005527BA0144195509660977092AE08AED8F
:1010000092E00E9498030115110509F464CF0E9433
:101010007E02882309F45FCF0E9400005CCF8FEF2F
:101020004816510411F461E084CFF70184918330B4
:1010300021F148F48130B9F08230D1F0F0E8CF16D8
:10104000D1048CF775CF873011F1883041F18430AD
:10105000A9F78091800080628093800050928B007D
:1010600040928A0069CF84B5806884BD47BC64CF54
:1010700084B5806284BD48BC5FCF80918000806869
:1010800080938000509289004092880055CF8091D3
:10109000B00080688093B0004092B3004DCF809143
:1010A000B00080628093B0004092B40045CF0E94AF
:1010B0005E086894B1110C94ED0808950E94D2085E
:1010C00088F09F5798F0B92F9927B751B0F0E1F009
:1010D000660F771F881F991F1AF0BA95C9F714C0B9
:1010E000B13091F00E94EC08B1E008950C94EC0846
:1010F000672F782F8827B85F39F0B93FCCF38695F2
:1011000077956795B395D9F73EF49095809570954E
:1011100061957F4F8F4F9F4F0895E89409C097FBCB
:101120003EF490958095709561957F4F8F4F9F4FBE
:101130009923A9F0F92F96E9BB279395F695879502
:1011400077956795B795F111F8CFFAF4BB0F11F4C5
:1011500060FF1BC06F5F7F4F8F4F9F4F16C088236C
:1011600011F096E911C0772321F09EE8872F762FA2
:1011700005C0662371F096E8862F70E060E02AF0E3
:101180009A95660F771F881FDAF7880F96958795CF
:1011900097F9089557FD9058440F551F59F05F3F38
:1011A00071F04795880F97FB991F61F09F3F79F089
:1011B00087950895121613061406551FF2CF46950B
:1011C000F1DF08C0161617061806991FF1CF86958D
:1011D0007105610508940895E894BB276627772771
:1011E000CB0197F908950E9406090C9477090E9493
:1011F000690938F00E94700920F0952311F00C94D1
:1012000060090C94660911240C94ED080E94CA0828
:1012100070F3959FC1F3950F50E0551F629FF00149
:10122000729FBB27F00DB11D639FAA27F00DB11D62
:10123000AA1F649F6627B00DA11D661F829F2227EB
:10124000B00DA11D621F739FB00DA11D621F839F72
:10125000A00D611D221F749F3327A00D611D231F48
:10126000849F600D211D822F762F6A2F11249F5796
:1012700050409AF0F1F088234AF0EE0FFF1FBB1F99
:10128000661F771F881F91505040A9F79E3F510558
:1012900080F00C9460090C94ED085F3FE4F3983EF5
:1012A000D4F3869577956795B795F795E7959F5F02
:1012B000C1F7FE2B880F911D9695879597F9089594
:1012C00097F99F6780E870E060E008959FEF80ECF9
:1012D000089500240A94161617061806090608959C
:1012E00000240A9412161306140605060895092E02
:1012F0000394000C11F4882352F0BB0F40F4BF2B71
:1013000011F460FF04C06F5F7F4F8F4F9F4F0895B0
:10131000A1E21A2EAA1BBB1BFD010DC0AA1FBB1FF9
:10132000EE1FFF1FA217B307E407F50720F0A21B6B
:10133000B30BE40BF50B661F771F881F991F1A94D8
:1013400069F760957095809590959B01AC01BD0102
:10135000CF010895EE0FFF1F0590F491E02D099441
:04136000F894FFCF2F
:101364000000400014005400000000001101E400DB
:101374008603BA00DD00CA00BB0000000000B4020E
:1013840014024102010372025002640200000000D0
:101394008004140286038503596F752061726520E9
:1013A40077726974696E6720612076616C75652057
:1013B4006F6600596F752061726520777269746970
:1013C4006E6720612076616C7565206F6620000D64
:0213D4000A000D
:00000001FF
