:100000000C945D000C949F020C9478020C94850073
:100010000C9485000C9485000C9485000C9485004C
:100020000C9485000C9485000C9485000C9485003C
:100030000C9485000C9485000C9485000C9485002C
:100040000C942E020C9485000C94EC020C94C602C5
:100050000C9485000C9485000C9485000C9485000C
:100060000C9485000C9485000000000024002700FB
:100070002A0000000000250028002B0004040404CE
:100080000404040402020202020203030303030342
:10009000010204081020408001020408102001021F
:1000A00004081020000000080002010000030407FB
:1000B0000000000000000000FF0311241FBECFEF6E
:1000C000D8E0DEBFCDBF11E0A0E0B1E0E8E6F8E0A7
:1000D00002C005900D92A232B107D9F721E0A2E249
:1000E000B1E001C01D92A83CB207E1F710E0CDE5F8
:1000F000D0E004C02197FE010E942C04CC35D1072A
:10010000C9F70E941E030C9432040C94000090E086
:10011000FC01EC55FF4F2491FC01E057FF4F349157
:10012000FC01E458FF4FE491EE23C9F0222339F09B
:10013000233001F1A8F4213019F1223029F1F0E047
:10014000EE0FFF1FEE58FF4FA591B4918FB7F894B3
:10015000EC91611126C030953E233C938FBF0895EA
:100160002730A9F02830C9F0243049F78091800069
:100170008F7D03C0809180008F7780938000DFCFD8
:1001800084B58F7784BDDBCF84B58F7DFBCF809125
:10019000B0008F778093B000D2CF8091B0008F7D78
:1001A000F9CF3E2BDACF8230E8F4E82FF0E0EE0F03
:1001B000FF1FE050FF4F71836083813041F08091D9
:1001C00069008C7F482B40936900E89A08958091DC
:1001D0006900837F440F551F440F551F482B4093E0
:1001E0006900E99A08950895AF92BF92CF92DF9285
:1001F000EF92FF920F931F93CF93DF936C017B01DC
:100200008B01040F151FEB015E01AE18BF08C0176C
:10021000D10759F06991D601ED91FC910190F081DF
:10022000E02DC6010995892B79F7C501DF91CF91A2
:100230001F910F91FF90EF90DF90CF90BF90AF9004
:100240000895FC01538D448D252F30E0842F90E0DC
:10025000821B930B541710F0CF96089501970895C1
:10026000FC01918D828D981761F0A28DAE0FBF2F8A
:10027000B11D5D968C91928D9F5F9F73928F90E0E0
:1002800008958FEF9FEF0895FC01918D828D98174F
:1002900031F0828DE80FF11D858D90E008958FEF8C
:1002A0009FEF0895FC01918D228D892F90E0805C55
:1002B0009F4F821B91098F73992708958BE291E0DC
:1002C0000E94520121E0892B09F420E0822F089539
:1002D00080E090E0892B29F00E945E0181110C944E
:1002E00000000895FC01A48DA80FB92FB11DA35AD9
:1002F000BF4F2C91848D90E001968F739927848F46
:10030000A689B7892C93A089B1898C918370806468
:100310008C93938D848D981306C00288F389E02D09
:1003200080818F7D80830895EF92FF920F931F93BA
:10033000CF93DF93EC0181E0888F9B8D8C8D981398
:100340001AC0E889F989808185FF15C09FB7F894A4
:10035000EE89FF896083E889F989808183708064F0
:1003600080839FBF81E090E0DF91CF911F910F913B
:10037000FF90EF900895F62E0B8D10E00F5F1F4F4A
:100380000F731127E02E8C8D8E110CC00FB607FC59
:10039000FACFE889F989808185FFF5CFCE010E94E7
:1003A0007201F1CFEB8DEC0FFD2FF11DE35AFF4FE2
:1003B000F0829FB7F8940B8FEA89FB898081806275
:1003C000CFCFCF93DF93EC01888D8823B9F0AA8932
:1003D000BB89E889F9898C9185FD03C0808186FD00
:1003E0000DC00FB607FCF7CF8C9185FFF2CF80814F
:1003F00085FFEDCFCE010E947201E9CFDF91CF9151
:100400000895CF93DF93FC0101900020E9F7319725
:10041000AF01481B590BBC018BE291E00E94F40034
:10042000EC0142E050E066E171E08BE291E00E9475
:10043000F4008C0F9D1FDF91CF91089561E08DE056
:100440000E94870089E191E00C94010260E08DE058
:100450000E9487008EE191E00C9401021F920F929E
:100460000FB60F9211242F933F938F939F93AF93C7
:10047000BF938091270190912801A0912901B0910B
:100480002A013091260123E0230F2D3758F50196DC
:10049000A11DB11D2093260180932701909328016F
:1004A000A0932901B0932A01809122019091230108
:1004B000A0912401B09125010196A11DB11D809349
:1004C000220190932301A0932401B0932501BF91B1
:1004D000AF919F918F913F912F910F900FBE0F90F1
:1004E0001F90189526E8230F0296A11DB11DD2CFAB
:1004F0001F920F920FB60F9211242F933F934F9399
:100500005F936F937F938F939F93AF93BF93EF937B
:10051000FF93E0910201F09103010995FF91EF91A2
:10052000BF91AF919F918F917F916F915F914F910B
:100530003F912F910F900FBE0F901F9018951F9213
:100540000F920FB60F9211242F933F934F935F9307
:100550006F937F938F939F93AF93BF93EF93FF938B
:10056000E0910001F09101010995FF91EF91BF9198
:10057000AF919F918F917F916F915F914F913F913B
:100580002F910F900FBE0F901F9018951F920F92F2
:100590000FB60F9211242F933F934F935F936F9356
:1005A0007F938F939F93AF93BF93EF93FF938BE2D0
:1005B00091E00E947201FF91EF91BF91AF919F91E5
:1005C0008F917F916F915F914F913F912F910F90FC
:1005D0000FBE0F901F9018951F920F920FB60F929B
:1005E00011242F938F939F93EF93FF93E0913B01FF
:1005F000F0913C018081E0914101F091420182FD46
:100600001BC09081809144018F5F8F7320914501C1
:10061000821741F0E0914401F0E0E55DFE4F958FD7
:1006200080934401FF91EF919F918F912F910F90B3
:100630000FBE0F901F9018958081F4CF789484B5E9
:10064000826084BD84B5816084BD85B5826085BDCE
:1006500085B5816085BD80916E00816080936E005C
:10066000109281008091810082608093810080914E
:1006700081008160809381008091800081608093FF
:1006800080008091B10084608093B1008091B000BF
:1006900081608093B00080917A00846080937A00BA
:1006A00080917A00826080937A0080917A008160E4
:1006B00080937A0080917A00806880937A0010920B
:1006C000C100E0913B01F0913C0182E08083E09128
:1006D0003701F09138011082E0913901F0913A012F
:1006E0008FEC808310924301E0913F01F091400133
:1006F00086E08083E0913D01F0913E018081806140
:100700008083E0913D01F0913E018081886080838B
:10071000E0913D01F0913E01808180688083E0910D
:100720003D01F0913E0180818F7D8083E2E9F0E020
:100730002491EEE7F0E084918823C1F090E0880FE7
:10074000991FFC01E859FF4FC591D491FC01EE5867
:10075000FF4FA591B4919FB7F8943881822F80956F
:1007600083238883EC91E22BEC939FBFEDE9F0E0CB
:100770002491E9E8F0E08491882399F090E0880FD3
:10078000991FFC01E859FF4FA591B491FC01EE5867
:10079000FF4F859194918FB7F894EC91E22BEC93F5
:1007A0008FBF43E050E06EE172E080E00E94D30032
:1007B00042E050E066E272E080E00E94D300C2E4D2
:1007C00000E010E0C0937C0080917A008064809308
:1007D0007A0080917A0086FDFCCF8091780080912C
:1007E000790089E191E00E9401020115110551F3A0
:1007F0000E945E01882331F30E940000E3CFEBE208
:10080000F1E01382128288EE93E0A0E0B0E08483EE
:100810009583A683B78388E091E09183808385ECFC
:1008200090E09587848784EC90E09787868780ECBA
:1008300090E0918B808B81EC90E0938B828B82ECAB
:1008400090E0958B848B86EC90E0978B868B118E55
:10085000128E138E148E0895EE0FFF1F0590F491E3
:08086000E02D0994F894FFCF8C
:10086800F300F300000000009401F4002101E1010D
:100878005201300144010D0A0068696768006C6F15
:020888007700F7
:00000001FF
