:100000000C94E2000C940A010C940A010C940A016D
:100010000C940A010C940A010C940A010C940A0134
:100020000C940A010C940A010C9421040C9493047E
:100030000C940A010C940A010C940A010C940A0114
:100040000C940A010C940A010C940A010C940A0104
:100050000C940A010C940A010C940A010C94D70325
:100060000C940A010C940A010C940A010C940A01E4
:100070000C940A010C940A010C940A010C940A01D4
:100080000C940A010C940A010C940A010C940A01C4
:100090000C940A010C940A010C940A010C940A01B4
:1000A0000C940A010C940A010C940A0126022902FC
:1000B00018021C0222024A024A024A022D0231029E
:1000C00035023B023F024A024502000000002400C4
:1000D00027002A002D003000000000002300260029
:1000E00029002C002F0000000000250028002B0014
:1000F0002E00310004040404040304050202020279
:1001000004030202020206060606060604040202B0
:100110000204040408020110408040102040804086
:10012000800802040180402010020110801020404D
:1001300040200000000200090F0000030401000C31
:1001400000000000000000000000000000000000AF
:1001500000080B0002020201000904000001020273
:1001600000000524001001052401010104240206F9
:100170000524060001070581031000400904010061
:10018000020A000000070502024000000705830282
:100190004000000403090412010002EF0201404183
:1001A00023418000010102030141726475696E6F91
:1001B000204C4C430041726475696E6F2059756E16
:1001C0000000D10611241FBECFEFDAE0DEBFCDBFA5
:1001D00011E0A0E0B1E0E6E1F0E102C005900D928F
:1001E000A632B107D9F721E0A6E2B1E001C01D9225
:1001F000A539B207E1F710E0C2EED0E004C02197C4
:10020000FE010E94FE07C13ED107C9F70E94E60623
:100210000C9409080C94000020919401211103C052
:100220008FEF9FEF08955FB7F89422E02093E900E5
:100230002091F20030E01216130614F421E030E0B1
:10024000422FFC0184E6415038F0289880939301B6
:100250009091F1009193F7CF2115310521F0809114
:10026000F200882319F05FBFC90108958BE68093DF
:10027000E800F9CF2FB7F89483E08093E9009091DC
:10028000E800892F807295FF04C09091F20080E40D
:10029000891B2FBF0895CF92DF92EF92FF920F93A9
:1002A0001F93CF93DF936C017A018B01C0E0D0E004
:1002B000CE15DF0581F0D8016D918D01D601ED914C
:1002C000FC910190F081E02DC6010995892B11F078
:1002D0002196EECF7E01C701DF91CF911F910F9143
:1002E000FF90EF90DF90CF90089580918B01811166
:1002F0000DC082E08093870184E080938801109292
:100300008A011092890181E080938B0187E891E056
:100310000895CF93DF931F92CDB7DEB76983DC01D9
:10032000ED91FC910280F381E02D41E050E0BE01AF
:100330006F5F7F4F09950F90DF91CF91089583E014
:100340008093E9008091F200882319F08AE380937A
:10035000E80008950E943A0190E00895CF93DF935A
:100360001F92CDB7DEB7FC018485958597FD05C04A
:100370002FEF3FEF358724870BC0CE0101960E94F7
:100380000C01019719F4898190E002C08FEF9FEF73
:100390000F90DF91CF9108950F931F93CF93DF9329
:1003A0001F92CDB7DEB78C01FC018485958597FF40
:1003B0000EC0CE0101960E940C01019719F48981AB
:1003C00090E002C08FEF9FEFF80195878487F801D6
:1003D000848595850F90DF91CF911F910F9108959E
:1003E000FC018485958597FD0BC09FB7F89482E04A
:1003F0008093E9008091F2009FBF90E001960895FC
:100400009FB7F89482E08093E9008091F2009FBF4B
:1004100090E00895089580E090E0089590E0FC0158
:100420003197EF30F105B0F5EA5AFF4F0C94FE0713
:10043000809180008F7703C0809180008F7D8093B2
:100440008000089580918000877FF9CF84B58F77F1
:1004500002C084B58F7D84BD0895809190008F7710
:1004600007C0809190008F7D03C080919000877FAE
:100470008093900008958091C0008F7703C0809191
:10048000C0008F7D8093C00008958091C200877F57
:100490008093C20008953FB7F89480913101909104
:1004A0003201A0913301B091340126B5A89B05C05B
:1004B0002F3F19F00196A11DB11D3FBFBA2FA92FE3
:1004C000982F8827820F911DA11DB11DBC01CD0160
:1004D00042E0660F771F881F991F4A95D1F708954C
:1004E000CF92DF92EF92FF920E944B026B017C0150
:1004F0000E944B02DC01CB018C199D09AE09BF099A
:10050000883E9340A105B10598F3FF90EF90DF90EE
:10051000CF9008958F929F92AF92BF92CF92DF9229
:10052000EF92FF920F931F93CF93DF936C017B01A8
:100530008A0180910B01882309F458C080919401AD
:10054000882309F453C08091360180FF05C0809153
:10055000E00082608093E000E801B12C8AEFA82ED1
:1005600093E0892E2AE3922E209711F4BB20B9F153
:100570000E943A01811106C0AA94AA20B9F10E94F2
:100580007002F2CF282F30E0C217D3070CF48C2F63
:100590009FB7F8948092E9002091E80025FF1DC0E4
:1005A000282F30E0C21BD30BF701815020F041917E
:1005B0004093F100FACFE20EF31EBB2019F09092A7
:1005C000E8000AC08091E80085FD07C09092E8002D
:1005D000BB24B394209709F0B12C9FBFC5CF5D9881
:1005E00084E6809335011016110644F081E090E016
:1005F000F6019383828380E090E001C0C801DF911F
:10060000CF911F910F91FF90EF90DF90CF90BF900F
:10061000AF909F908F9008954091280150912901AB
:10062000209126013091270142175307B4F490918D
:10063000E8009570E1F39091E80092FD19C0809375
:10064000F100809128019091290101968F739927DB
:10065000892B19F48EEF8093E80080912801909106
:1006600029010196909329018093280181E0089542
:1006700080E00895DF92EF92FF920F931F93CF9344
:10068000DF93D82EF92EE42E062F10E0C801019634
:10069000880F0E940C0383E00E940C03CD2DDF2DF8
:1006A0000C0F1D1FC017D10789F0E7FE03C0FE0124
:1006B000849101C088810E940C03F82E80E00E9482
:1006C0000C038F2121968111EDCF01C081E0DF91D4
:1006D000CF911F910F91FF90EF90DF900895DF92DF
:1006E000EF92FF920F931F93CF93DF93D82E8A013F
:1006F0007B01E40EF51EEB01CE15DF0571F0D7FE90
:1007000003C0FE01849101C088810E940C032196E0
:100710008111F2CF8FEF9FEF01C0C801DF91CF9120
:100720001F910F91FF90EF90DF9008950F931F930B
:10073000CF93DF931F92CDB7DEB782E0898342E487
:1007400050E061E571E080E80E946F030E9475014E
:10075000DC0112960D911C9113970115110589F07A
:10076000D801ED91FC910280F381E02DBE016F5F15
:100770007F4FC801099597FD04C0F80100851185D8
:10078000ECCF89810F90DF91CF911F910F91089548
:10079000615030F02091F100FC0120830196F8CFE8
:1007A000289884E68093930108950E9404081F927C
:1007B0000F920FB60F9211242F933F938F939F9315
:1007C000AF93BF9380912D0190912E01A0912F01A5
:1007D000B091300130912C0123E0230F2D3720F40C
:1007E0000196A11DB11D05C026E8230F0296A11D8B
:1007F000B11D20932C0180932D0190932E01A09385
:100800002F01B09330018091310190913201A0917C
:100810003301B09134010196A11DB11D80933101C6
:1008200090933201A0933301B0933401BF91AF9103
:100830009F918F913F912F910F900FBE0F901F901E
:1008400018951F920F920FB60F9211248F939F93BA
:100850008091E1009091E100937F9093E10083FF0C
:100860000FC01092E90091E09093EB001092EC0021
:1008700092E39093ED001092940198E09093F00031
:1008800082FF20C093E09093E9009091F2009923B9
:1008900019F09AE39093E80090913501992339F08B
:1008A00090913501915090933501992389F1909160
:1008B0009301992339F09091930191509093930172
:1008C000992341F184FF10C08091E2008E7E816007
:1008D0008093E2008091E1008F7E8093E10080911F
:1008E00036018E7E806111C080FF16C08091E200CB
:1008F0008E7E80618093E2008091E1008E7E809305
:10090000E100809136018E7E81608093360104C0C3
:100910005D9ACDCF289AD6CF9F918F910F900FBE21
:100920000F901F9018951F920F920FB60F921124DF
:10093000CF92DF92EF92FF920F931F932F933F93EB
:100940004F935F936F937F938F939F93AF93BF93D7
:10095000EF93FF93CF93DF93CDB7DEB76C97DEBFF6
:10096000CDBF1092E9008091E80083FFFBC168E0F1
:10097000CE0145960E94C80382EF8093E8008D89DE
:1009800087FF05C09091E80090FFFCCF03C09EEF69
:100990009093E800982F907609F0C6C09E894F8901
:1009A000588D2F89F88C91110CC0803829F48091D2
:1009B0002B018093F10002C01092F1001092F1001F
:1009C00045C1913051F4811141C14130510509F0C7
:1009D0003DC180912B018D7F0BC0933061F481115B
:1009E00035C14130510509F031C180912B01826040
:1009F00080932B012BC1953049F48091E80080FF52
:100A0000FCCF822F80688093E30020C1963009F0EC
:100A10005EC00B8D1C8D22E01092E900109229011E
:100A200010922801F21232C0109227011092260172
:100A30000E94960399E0BE016F5F7F4FDB01E92FB3
:100A40001D92EA95E9F79983FA8291E09E8390EAF4
:100A500098879AEF99872091280130912901275F83
:100A60003F4F3C832B838D831092E9001092290124
:100A700010922801109327010093260149E050E0CD
:100A800080E00E946F030E949603E0C0109327014C
:100A9000009326010E947501DC0112960D911C91B4
:100AA00013970115110509F4BBC0D801ED91FC9114
:100AB0000480F581E02DBE016B5E7F4FC801099572
:100AC000009709F0C7C0F80100851185EACF97307B
:100AD00009F445C1983021F481E08093F100B6C05B
:100AE000993009F0B3C0837009F039C1EDE0F1E04D
:100AF00081E031E096E32081211109C08EE78093E7
:100B0000EA001092EA008F89809394019FC080933D
:100B1000E9003093EB0021912093EC009093ED00DD
:100B20008F5F873041F7EACF8B8D9C8D1092E90063
:100B30001092290110922801909327018093260199
:100B4000898D811153C08E899D89913A49F48132F2
:100B500009F005C147E050E064E071E080E0BBC00F
:100B6000913209F0FCC0833269F48F89988DA0E03E
:100B7000B0E08093000190930101A0930201B09333
:100B8000030164C0803269F48091E80082FFFCCFE9
:100B900067E084E091E00E94C8038BEF8093E80057
:100BA00055C0823209F052C08F8980930B01EEEF5D
:100BB000FFE7859194918B3F9C4D19F0E0E0F8E0C0
:100BC00002C0EEEFFAE08091040190910501A0913E
:100BD0000601B0910701803B9440A105B10509F0E1
:100BE0009EC080910B0180FF79C099C00E94750161
:100BF000FC01028113810115110509F4B0C0D8016F
:100C0000ED91FC910190F081E02DBE016B5E7F4F74
:100C1000C801099581111AC0F80100851185EBCF33
:100C2000F1E0FF1609F44EC0F3E0FF1298C08F897F
:100C3000882309F44AC0823089F440E86BE085EBF0
:100C400091E00E943A03882309F489C08EEF8093D3
:100C5000E80088C018161906CCF381C0813029F449
:100C600040E86BE089EA91E0ECCF833009F077C08F
:100C70000E947501DC011296ED90FC9013978E0195
:100C80000F5F1F4F6801E114F10479F0D701ED9176
:100C9000FC910680F781E02DB801C7010995080F86
:100CA000111DF701E084F184EECFD8011C92F6010A
:100CB00001900020E9F73197BF016C197D0940E0F0
:100CC000C601BFCF67E971E002C063E971E0FB01D3
:100CD000449150E080E80E946F03B8CFEE3F2AE0D5
:100CE000F20751F0808191818737A7E79A0721F0B9
:100CF0009093FF0A8093FE0A87E797E791838083AA
:100D00008091600080932A019BE088E10FB6F894FF
:100D1000A895809360000FBE9093600097CF80816C
:100D200091818737974709F091CFA895809160000E
:100D300088618093600080912A0180936000EE3F7B
:100D4000BAE0FB0739F08091FE0A9091FF0A918387
:100D500080837CCF1092FF0A1092FE0A77CF81E247
:100D60008093EB006C960FB6F894DEBF0FBECDBF3C
:100D7000DF91CF91FF91EF91BF91AF919F918F91B3
:100D80007F916F915F914F913F912F911F910F91A3
:100D9000FF90EF90DF90CF900F900FBE0F901F90BD
:100DA0001895E7E3F1E01382128288EE93E0A0E069
:100DB000B0E084839583A683B78387E191E0918334
:100DC00080838FEF9FEF958784870895789484B50B
:100DD000826084BD84B5816084BD85B5826085BD37
:100DE00085B5816085BD80916E00816080936E00C5
:100DF00010928100809181008260809381008091B7
:100E00008100816080938100809180008160809367
:100E10008000809191008260809391008091910088
:100E20008160809391008091900081608093900018
:100E30008091C10084608093C1008091C100826074
:100E40008093C1008091C10081608093C100809136
:100E5000C30081608093C3008091C0008260809352
:100E6000C0008091C20081608093C20080917A00AE
:100E7000846080937A0080917A00826080937A0007
:100E800080917A00816080937A0080917A008068F6
:100E900080937A001092940110922B0110923601E7
:100EA0008091D70081608093D70080EA8093D8003A
:100EB00089B5806189BD89B5826089BD09B400FEAC
:100EC000FDCF0E9470028091D8008F7C806180935A
:100ED000D8008091E000807F8093E0008091E10065
:100EE0008E7E8093E1008DE08093E200559A209AF7
:100EF00075E1E72E71E0F72EF7012491E6EFCE2E93
:100F0000E0E0DE2EF60184918823C1F090E0880FA6
:100F1000991FFC01E653FF4FC591D491FC01EA51A2
:100F2000FF4FA591B4913FB7F8949881822F809597
:100F3000982398838C91822B8C933FBFC0E2D1E0A1
:100F4000FE01249101E011E0F8018491882399F0D9
:100F500090E0880F991FFC01E653FF4FA591B491D3
:100F6000FC01EA51FF4F859194919FB7F8948C91C1
:100F7000822B8C939FBF24E3622E21E0722E3FE3ED
:100F8000A32E31E0B32E40E0842E40E0942EF301F6
:100F90008491F7015490F6014490442041F181116D
:100FA0000E940E02E42DF0E0EE0FFF1FE852FF4F0B
:100FB000A591B4918C915822D1F0F5018491FE0154
:100FC0005490F8014490442091F081110E940E0247
:100FD000E42DF0E0EE0FFF1FEA51FF4FA591B49111
:100FE0009FB7F8948C91509458225C929FBF8114C3
:100FF000910409F4CCCF0E940000C9CFEE0FFF1F6F
:101000000590F491E02D099481E090E0F8940C941F
:061010000908F894FFCF6F
:10101600FFFFFFFF00E100000000000000C180812B
:101026000000000000000089018A02AA019F01F069
:0610360001AE01CC010037
:00000001FF
