:100000000C945D000C9485000C9485000C94850084
:100010000C9485000C9485000C9485000C9485004C
:100020000C9485000C9485000C9485000C9485003C
:100030000C9485000C9485000C9485000C9485002C
:100040000C940A070C9485000C947A070C945407BE
:100050000C9485000C9485000C9485000C9485000C
:100060000C94EB050C9485000000000800020100D0
:100070000003040700000000000000000000000072
:10008000250028002B0000000000240027002A0083
:10009000040404040404040402020202020203032E
:1000A0000303030301020408102040800102040836
:1000B0001020010204081020AC0711241FBECFEF4E
:1000C000D8E0DEBFCDBF11E0A0E0B1E0E0EEF3E1AB
:1000D00002C005900D92AA34B107D9F722E0AAE434
:1000E000B1E001C01D92AD3CB207E1F710E0CDE5F3
:1000F000D0E004C02197FE010E94E309CC35D1076E
:10010000C9F70E9406080C94EE090C94000090E0D8
:10011000FC01EC55FF4F249180579F4FFC018491C7
:10012000882399F090E0880F991FFC01EA57FF4F50
:10013000A591B491FC01E458FF4F859194918FB73C
:10014000F894EC91E22BEC938FBF089585ED8093AA
:10015000BC008091BC0084FDFCCF1092E5010895A5
:100160002091BF01260F3327331F21323105ECF4D4
:100170002091E501FC0190E080E0243069F082E00C
:100180000895A091BF012191AC0143565E4FA40F89
:10019000B52FB11D2C930196861798F38091BF015E
:1001A000680F6093BF0180E0089581E0089508958D
:1001B00008950895E0919A0180919901E81730F42B
:1001C000F0E0E758FE4F808190E008958FEF9FEFB9
:1001D000089590919A01809199012FEF3FEF981720
:1001E00048F4E92FF0E0E758FE4F208130E09F5FB0
:1001F00090939A01C90108958091990190919A0173
:10020000891B990B0895CF92DF92EF92FF920F9383
:100210001F93CF93DF937C01CB018A01209178015A
:10022000222389F0EB016B01C40ED51ECC15DD0530
:1002300069F06991D701ED91FC910190F081E02D79
:10024000C7010995F3CF642F0E94B000C801DF9168
:10025000CF911F910F91FF90EF90DF90CF90089575
:10026000CF93DF931F92CDB7DEB7698320917801DA
:100270002223F9F020919B01203258F021E030E058
:10028000FC013383228390E080E00F90DF91CF91D7
:10029000089580919C01E82FF0E0E85AFE4F998183
:1002A00090838F5F80939C0180939B0181E090E01D
:1002B000ECCF61E0CE0101960E94B000F7CFCF9362
:1002C000FC012381222309F473C0262F61816095EC
:1002D00062236083C28181E080937801C0935701DB
:1002E00010929C0110929B018BE092E00E943001E1
:1002F00090919B0121E0913208F045C08091E50189
:100300008111FCCF82E08093E50181E08093E701D9
:100310008FEF8093E4011092090290930802A8E500
:10032000B1E0E8EEF1E080E098133CC010920A02E0
:1003300080910A02CC0FC82BC0930A028091E6017B
:100340008130A1F51092E60180910A028093BB00F2
:100350008091BC0083FDF8CF85EC8093BC00809138
:10036000E5018230E1F38091E40120E08F3F59F014
:100370008091E40122E0803231F08091E40124E0B8
:10038000803309F423E010929C0110929B0110929B
:10039000780130E081E090E0232B11F090E080E0E4
:1003A000CF9108952D9121938F5FBECF85EED5CF4C
:1003B00030E020E0EFCF90E0FC01E859FF4F2491BE
:1003C000FC01EC55FF4F3491FC01E057FF4FE491E5
:1003D000EE23C9F0222339F0233001F1A8F42130B3
:1003E00019F1223029F1F0E0EE0FFF1FE458FF4F22
:1003F000A591B4918FB7F894EC91611126C0309516
:100400003E233C938FBF08952730A9F02830C9F0D0
:10041000243049F7809180008F7D03C08091800057
:100420008F7780938000DFCF84B58F7784BDDBCF5B
:1004300084B58F7DFBCF8091B0008F778093B00023
:10044000D2CF8091B0008F7DF9CF3E2BDACF3FB76E
:10045000F8948091530190915401A0915501B0916D
:10046000560126B5A89B05C02F3F19F00196A11D86
:10047000B11D3FBFBA2FA92F982F8827BC01CD01EE
:10048000620F711D811D911D42E0660F771F881F4D
:10049000991F4A95D1F70895AF92BF92CF92DF92FC
:1004A000EF92FF920F931F93CF93DF936C017B0129
:1004B0008B01040F151FEB015E01AE18BF08C017BA
:1004C000D10759F06991D601ED91FC910190F0812D
:1004D000E02DC6010995892B79F7C501DF91CF91F0
:1004E0001F910F91FF90EF90DF90CF90BF90AF9052
:1004F0000895FC01538D448D252F30E0842F90E02A
:10050000821B930B541710F0CF960895019708950E
:10051000FC01918D828D981761F0A28DAE0FBF2FD7
:10052000B11D5D968C91928D9F5F9F73928F90E02D
:1005300008958FEF9FEF0895FC01918D828D98179C
:1005400031F0828DE80FF11D858D90E008958FEFD9
:100550009FEF0895FC01918D228D892F90E0805CA2
:100560009F4F821B91098F739927089587E192E02D
:100570000E94AA0221E0892B09F420E0822F08952D
:1005800080E090E0892B29F00E94B60281110C9442
:1005900000000895FC01A48DA80FB92FB11DA35A26
:1005A000BF4F2C91848D90E001968F739927848F93
:1005B000A689B7892C93A089B1898C9183708064B6
:1005C0008C93938D848D981306C00288F389E02D57
:1005D00080818F7D80830895EF92FF920F931F9308
:1005E000CF93DF93EC0181E0888F9B8D8C8D9813E6
:1005F0001AC0E889F989808185FF15C09FB7F894F2
:10060000EE89FF896083E889F9898081837080643D
:1006100080839FBF81E090E0DF91CF911F910F9188
:10062000FF90EF900895F62E0B8D10E00F5F1F4F97
:100630000F731127E02E8C8D8E110CC00FB607FCA6
:10064000FACFE889F989808185FFF5CFCE010E9434
:10065000CA02F1CFEB8DEC0FFD2FF11DE35AFF4FD6
:10066000F0829FB7F8940B8FEA89FB8980818062C2
:10067000CFCFCF93DF93EC01888D8823B9F0AA897F
:10068000BB89E889F9898C9185FD03C0808186FD4D
:100690000DC00FB607FCF7CF8C9185FFF2CF80819C
:1006A00085FFEDCFCE010E94CA02E9CFDF91CF9145
:1006B0000895EF92FF920F931F93CF938C01FC014B
:1006C00084E0C0E0262F30E060FF02C09589C92B8E
:1006D000B90175956795815031968111F3CF4130FD
:1006E00011F4F8014489F8016585C62BC42B780103
:1006F000FEE0EF0EF11CF80162896C2BC7010E942D
:100700005F01F801628960956C23C701CF911F9149
:100710000F91FF90EF900C945F010F931F93CF9375
:10072000DF93062F0F70423041F440E0602FDF91DD
:10073000CF911F910F910C945903142FEC0170E08D
:1007400084E0759567958A95E1F7CE010E9459037B
:10075000412F602FCE01EBCFFC0184858823A1F0CF
:10076000218532852115310521F4611107C01586D7
:1007700006C021303105D9F76111F9CF858765852C
:10078000CF010E960C945F01089521E001C0220F65
:100790006A95EAF7DC011C962C931C971A965C93D9
:1007A0004E931997ED91FC910484F585E02D60E05E
:1007B0000994DC01ED91FC910684F785E02D41E080
:1007C000099581E090E00895DC01ED91FC910684AB
:1007D000F785E02D40E00994CF93DF93CDB7DEB7E6
:1007E00028970FB6F894DEBF0FBECDBF4091000131
:1007F0005091010160910201709103014D835E836C
:100800006F83788740910401509105016091060142
:100810007091070149835A836B837C832091BB02CB
:10082000821710F08FEF820F90E03091BC028C0F96
:100830009D1FFC01303181F4243071F461816068C6
:1008400084EB92E028960FB6F894DEBF0FBECDBFC2
:10085000DF91CF910C94E4036581F1CF8F929F9249
:10086000AF92BF92CF92DF92EF92FF920F931F93BE
:10087000CF93DF93EC01423018F08C8188608C8339
:100880004F836887222329F0413019F48C818460DA
:100890008C830E9427024B015C0184E6C82ED12C78
:1008A000E12CF12C0E942702681979098A099B0919
:1008B000683E734081059105A8F321E0C21AD10872
:1008C000E108F10888EE880E83E0981EA11CB11C97
:1008D000C114D104E104F10429F76C8164FD5DC009
:1008E000E881F9810684F785E02D42E063E0CE01DE
:1008F00009950BE416E4C8010197F1F7E881F98145
:100900000684F785E02D42E063E0CE010995C80139
:100910000197F1F7E881F9810684F785E02D42E03F
:1009200063E0CE01099583E592E00197F1F7E88154
:10093000F9810684F785E02D42E062E0CE01099559
:100940006C816062CE010E94E40384E08D836CE0E0
:10095000CE010E94E40361E0CE010E94E4038BE338
:100960009FE10197F1F782E08E8366E0CE010E945D
:10097000E403E881F9810484F585E02D6FEFCE0171
:10098000DF91CF911F910F91FF90EF90DF90CF906B
:10099000BF90AF909F908F9009946062CE010E94AB
:1009A000E4038BE496E40197F1F76C816062CE0179
:1009B0000E94E40383E592E00197F1F76C816062A5
:1009C000CE010E94E403BCCF08950895089590E0FD
:1009D00080E00895FB0101900020E9F73197AF0115
:1009E000461B570BDC01ED91FC910280F381E02D59
:1009F00009948F929F92AF92BF92EF92FF920F93C2
:100A00001F93CF93DF93CDB7DEB7A1970FB6F894BE
:100A1000DEBF0FBECDBF7C01FA01CB0119A222308F
:100A200008F42AE08E010F5D1F4F822E912CB12C0D
:100A3000A12CBF01A50194010E94C109F901CA01BD
:100A40006A300CF5605DD8016E938D01232B242B49
:100A5000252B79F790E080E0109721F0BD01C701C8
:100A60000E94EA04A1960FB6F894DEBF0FBECDBF78
:100A7000DF91CF911F910F91FF90EF90BF90AF90BA
:100A80009F908F900895695CDECFFF920F931F9324
:100A9000CF93DF93EC01162F042FF22E8B85888BDA
:100AA00010929A011092990110929C0110929B0150
:100AB0001092E50181E08093E7011092E60161E088
:100AC00082E10E94DB0161E083E10E94DB01809111
:100AD000B9008E7F8093B9008091B9008D7F80939B
:100AE000B90088E48093B80085E48093BC0087ED6A
:100AF00090E09093BE018093BD0188ED90E09093CB
:100B0000C2018093C10188899091E5019111FCCFC8
:100B100091E09093E5019093E7012FEF2093E4019A
:100B2000109209021092080290930A0290910A0210
:100B3000880F892B80930A028091E601813009F0A9
:100B400042C01092E60180910A028093BB0080911E
:100B5000BC0083FDF8CF85EC8093BC008091E5015B
:100B60008130E1F38091090291E0811102C09091FE
:100B70000902E8EEF1E0A9E7B1E080E0891325C0C1
:100B800010929A018093990191E0811101C090E047
:100B9000998B8BE092E00E94E9008E8789898823F7
:100BA00039F01F861C8260E0CE010E960E945F0124
:100BB0002F2D402F612FCE01DF91CF911F910F91EB
:100BC000FF900C942E0485EEC7CF21912D938F5F5B
:100BD000D5CF0E94E9091F920F920FB60F921124F0
:100BE0002F933F934F935F936F937F938F939F9335
:100BF000AF93BF93EF93FF938091B900887F8036C6
:100C000009F44AC0F0F5883209F4A7C018F580311C
:100C100009F49BC0B8F4882309F4F9C0883009F4BA
:100C200094C0FF91EF91BF91AF919F918F917F9170
:100C30006F915F914F913F912F910F900FBE0F9049
:100C40001F901895883109F488C0803251F780933D
:100C5000E40114C0803409F49DC040F48033B9F33A
:100C60008833F9F68093E40185ECB0C0803509F44F
:100C700085C0883509F496C0883499F60E94A6008C
:100C8000D0CF883909F48CC038F5883729F050F472
:100C9000883611F0803729F683E08093E5011092C1
:100CA000E30157C0883809F47BC0803919F08038D7
:100CB00009F0B7CF8091E301803208F071C0E09174
:100CC000E30181E08E0F8093E3018091BB00F0E0AF
:100CD000ED53FE4F80833DC0803B39F0E0F4803A15
:100CE00009F479C0883A09F09CCF84E08093E5014B
:100CF0001092C0011092BF01E091BD01F091BE01C0
:100D000009958091BF0181110FC081E08093BF01DF
:100D100010929D0109C0803C09F4A6CF883C09F4DB
:100D2000A3CF883B09F07DCFE091C00181E08E0F19
:100D30008093C001F0E0E356FE4F80818093BB00BA
:100D40009091C0018091BF0129C080910A028093D7
:100D5000BB0085EC8093BC0064CF90910902809128
:100D60000802981758F5E091090281E08E0F8093F0
:100D70000902F0E0E851FE4F8081E9CFE0910902DD
:100D800081E08E0F809309028091BB00F0E0E85172
:100D9000FE4F808390910902809108029817C8F253
:100DA00085E8D8CFE091090281E08E0F8093090297
:100DB0008091BB00F0E0E851FE4F80838091E70115
:100DC00081115CCF81E08093E60184EA8093BC00CE
:100DD0001092E50126CF85EC8093BC001092E501CE
:100DE0008091E301803230F4E091E301F0E0ED53D3
:100DF000FE4F10826091E30170E0E091C101F0913B
:100E0000C20183EC91E009951092E3010ACF1092A0
:100E1000E40134CF1F920F920FB60F9211242F933B
:100E20003F938F939F93AF93BF9380914F01909186
:100E30005001A0915101B091520130914E0123E037
:100E4000230F2D3758F50196A11DB11D20934E019A
:100E500080934F0190935001A0935101B0935201A0
:100E60008091530190915401A0915501B091560188
:100E70000196A11DB11D8093530190935401A0933D
:100E80005501B0935601BF91AF919F918F913F91C2
:100E90002F910F900FBE0F901F90189526E8230FEB
:100EA0000296A11DB11DD2CF1F920F920FB60F92C5
:100EB00011242F933F934F935F936F937F938F935F
:100EC0009F93AF93BF93EF93FF9387E192E00E94CC
:100ED000CA02FF91EF91BF91AF919F918F917F9146
:100EE0006F915F914F913F912F910F900FBE0F9097
:100EF0001F9018951F920F920FB60F9211242F93E7
:100F00008F939F93EF93FF93E0912702F091280234
:100F10008081E0912D02F0912E0282FD1BC0908114
:100F2000809130028F5F8F7320913102821741F0E0
:100F3000E0913002F0E0E95EFD4F958F8093300242
:100F4000FF91EF919F918F912F910F900FBE0F9076
:100F50001F9018958081F4CFEBE0F2E013821282AB
:100F600088EE93E0A0E0B0E084839583A683B78306
:100F70002CE031E031832083E7E1F2E0138212823A
:100F800084839583A683B7838EE191E091838083E8
:100F900085EC90E09587848784EC90E0978786873E
:100FA00080EC90E0918B808B81EC90E0938B828B36
:100FB00082EC90E0958B848B86EC90E0978B868B0F
:100FC000118E128E138E148EE4EBF2E013821282D5
:100FD00080E391E091838083108A8FEF8787168664
:100FE000118A8FE38387148615861286118684E022
:100FF000828B82E0838B81E0848B80E1858B80E231
:10100000868B80E4878B80E8808F0895789484B500
:10101000826084BD84B5816084BD85B5826085BDF4
:1010200085B5816085BD80916E00816080936E0082
:101030001092810080918100826080938100809174
:101040008100816080938100809180008160809325
:1010500080008091B10084608093B1008091B000E5
:1010600081608093B00080917A00846080937A00E0
:1010700080917A00826080937A0080917A0081600A
:1010800080937A0080917A00806880937A00109231
:10109000C10089E00E948700E0912702F0912802B8
:1010A00082E08083E0912302F09124021082E0919B
:1010B0002502F09126028FEC808310922F02E0919E
:1010C0002B02F0912C0286E08083E0912902F091BE
:1010D0002A02808180618083E0912902F0912A02B6
:1010E000808188608083E0912902F0912A028081CA
:1010F00080688083E0912902F0912A0280818F7DAF
:10110000808320E042E060E184EB92E00E944505AC
:1011100050E040E063E084EB92E00E94C50361E0B0
:1011200084EB92E00E94AC0380E00E94EC0360E458
:1011300071E084EB92E00E94EA0442E4742E51E7ED
:10114000E52E50E0F52E6EEF862E912CA12CB12CC1
:1011500076E0C72ED12C00E010E070927C008091E8
:101160007A00806480937A0080917A0086FDFCCFBB
:10117000909178008091790089279827892797FD99
:101180000396959587959595879590934D018093B6
:101190004C0120904A0130904B01032C000C440874
:1011A00055082AE0B201A10157FE0DC06DE287E1AA
:1011B00092E00E94EC0244275527BA0142195309D4
:1011C000640975092AE087E192E00E94F90467E466
:1011D00071E087E192E00E94EA04C0914C01D09155
:1011E0004D01209709F4AAC0C530D10509F467C0A4
:1011F000BE010D2E000C880B990B615071098109FD
:10120000910922E0660F771F881F991F2A95D1F751
:10121000A50194010E94A2092F5F3F4F4F4F5F4FDE
:10122000C601821B930B90934B0180934A0189E086
:101230000E948700CF3FD10509F449C0F70184918E
:10124000833009F461C008F044C0813009F452C011
:10125000823009F454C0C038D105CCF560E089E093
:101260000E94DB0181E00E94EC0320904A01309053
:101270004B01032C000C440855082AE0B201A101DF
:1012800057FE0DC06DE284EB92E00E94D903442723
:101290005527BA0142195309640975092AE084EBFC
:1012A00092E00E94F9040115110509F456CF0E943D
:1012B000B602882309F451CF0E9400004ECF10924D
:1012C0004B0110924A0189E00E948700B7CF61E08C
:1012D000C6CF873019F1883049F1843009F0BBCF8F
:1012E00080918000806280938000D0938B00C093B7
:1012F0008A00B8CF84B5806884BDC7BDB3CF84B53C
:10130000806284BDC8BDAECF80918000806880932C
:101310008000D0938900C0938800A4CF8091B00052
:1013200080688093B000C093B3009CCF8091B000E0
:1013300080628093B000C093B40094CF89E00E9493
:1013400087008CCF052E97FB1EF400940E94B909EC
:1013500057FD07D00E94C10907FC03D04EF40C943E
:10136000B90950954095309521953F4F4F4F5F4FAC
:10137000089590958095709561957F4F8F4F9F4F01
:101380000895A1E21A2EAA1BBB1BFD010DC0AA1FC6
:10139000BB1FEE1FFF1FA217B307E407F50720F0DE
:1013A000A21BB30BE40BF50B661F771F881F991F59
:1013B0001A9469F760957095809590959B01AC01A2
:1013C000BD01CF010895EE0FFF1F0590F491E02DB0
:1013D000099481E090E0F8940C94EE09F894FFCF22
:1013E0000040145400401050000000003001030180
:1013F000E704D900FC00E900DA0000000000EC027C
:101400004C0279023903AA0288029C020000000003
:10141000D9034C02E704E6044505C503AC038D037C
:0A14200053504545443A000D0A0000
:00000001FF
